{
  "contractName": "ZombieAttack",
  "abi": [
    {
      "anonymous": false,
      "inputs": [
        {
          "indexed": false,
          "internalType": "uint256",
          "name": "zombieId",
          "type": "uint256"
        },
        {
          "indexed": false,
          "internalType": "string",
          "name": "name",
          "type": "string"
        },
        {
          "indexed": false,
          "internalType": "uint256",
          "name": "dna",
          "type": "uint256"
        }
      ],
      "name": "NewZombie",
      "type": "event"
    },
    {
      "anonymous": false,
      "inputs": [
        {
          "indexed": true,
          "internalType": "address",
          "name": "previousOwner",
          "type": "address"
        },
        {
          "indexed": true,
          "internalType": "address",
          "name": "newOwner",
          "type": "address"
        }
      ],
      "name": "OwnershipTransferred",
      "type": "event"
    },
    {
      "inputs": [
        {
          "internalType": "uint256",
          "name": "_zombieId",
          "type": "uint256"
        },
        {
          "internalType": "uint256",
          "name": "_newDna",
          "type": "uint256"
        }
      ],
      "name": "changeDna",
      "outputs": [],
      "stateMutability": "nonpayable",
      "type": "function"
    },
    {
      "inputs": [
        {
          "internalType": "uint256",
          "name": "_zombieId",
          "type": "uint256"
        },
        {
          "internalType": "string",
          "name": "_newName",
          "type": "string"
        }
      ],
      "name": "changeName",
      "outputs": [],
      "stateMutability": "nonpayable",
      "type": "function"
    },
    {
      "inputs": [
        {
          "internalType": "string",
          "name": "_name",
          "type": "string"
        }
      ],
      "name": "createRandomZombie",
      "outputs": [],
      "stateMutability": "nonpayable",
      "type": "function"
    },
    {
      "inputs": [],
      "name": "fee",
      "outputs": [
        {
          "internalType": "uint256",
          "name": "",
          "type": "uint256"
        }
      ],
      "stateMutability": "view",
      "type": "function",
      "constant": true
    },
    {
      "inputs": [
        {
          "internalType": "uint256",
          "name": "_zombieId",
          "type": "uint256"
        },
        {
          "internalType": "uint256",
          "name": "_kittyId",
          "type": "uint256"
        }
      ],
      "name": "feedOnKitty",
      "outputs": [],
      "stateMutability": "nonpayable",
      "type": "function"
    },
    {
      "inputs": [],
      "name": "getRandomNumber",
      "outputs": [
        {
          "internalType": "bytes32",
          "name": "requestId",
          "type": "bytes32"
        }
      ],
      "stateMutability": "nonpayable",
      "type": "function"
    },
    {
      "inputs": [
        {
          "internalType": "address",
          "name": "_owner",
          "type": "address"
        }
      ],
      "name": "getZombiesByOwner",
      "outputs": [
        {
          "internalType": "uint256[]",
          "name": "",
          "type": "uint256[]"
        }
      ],
      "stateMutability": "view",
      "type": "function",
      "constant": true
    },
    {
      "inputs": [],
      "name": "isOwner",
      "outputs": [
        {
          "internalType": "bool",
          "name": "",
          "type": "bool"
        }
      ],
      "stateMutability": "view",
      "type": "function",
      "constant": true
    },
    {
      "inputs": [],
      "name": "keyHash",
      "outputs": [
        {
          "internalType": "bytes32",
          "name": "",
          "type": "bytes32"
        }
      ],
      "stateMutability": "view",
      "type": "function",
      "constant": true
    },
    {
      "inputs": [],
      "name": "kill",
      "outputs": [],
      "stateMutability": "nonpayable",
      "type": "function"
    },
    {
      "inputs": [
        {
          "internalType": "uint256",
          "name": "_zombieId",
          "type": "uint256"
        }
      ],
      "name": "levelUp",
      "outputs": [],
      "stateMutability": "payable",
      "type": "function",
      "payable": true
    },
    {
      "inputs": [],
      "name": "owner",
      "outputs": [
        {
          "internalType": "address",
          "name": "",
          "type": "address"
        }
      ],
      "stateMutability": "view",
      "type": "function",
      "constant": true
    },
    {
      "inputs": [],
      "name": "randomResult",
      "outputs": [
        {
          "internalType": "uint256",
          "name": "",
          "type": "uint256"
        }
      ],
      "stateMutability": "view",
      "type": "function",
      "constant": true
    },
    {
      "inputs": [
        {
          "internalType": "bytes32",
          "name": "requestId",
          "type": "bytes32"
        },
        {
          "internalType": "uint256",
          "name": "randomness",
          "type": "uint256"
        }
      ],
      "name": "rawFulfillRandomness",
      "outputs": [],
      "stateMutability": "nonpayable",
      "type": "function"
    },
    {
      "inputs": [],
      "name": "renounceOwnership",
      "outputs": [],
      "stateMutability": "nonpayable",
      "type": "function"
    },
    {
      "inputs": [
        {
          "internalType": "address",
          "name": "_address",
          "type": "address"
        }
      ],
      "name": "setKittyContractAddress",
      "outputs": [],
      "stateMutability": "nonpayable",
      "type": "function"
    },
    {
      "inputs": [
        {
          "internalType": "uint256",
          "name": "_fee",
          "type": "uint256"
        }
      ],
      "name": "setLevelUpFee",
      "outputs": [],
      "stateMutability": "nonpayable",
      "type": "function"
    },
    {
      "inputs": [
        {
          "internalType": "address",
          "name": "newOwner",
          "type": "address"
        }
      ],
      "name": "transferOwnership",
      "outputs": [],
      "stateMutability": "nonpayable",
      "type": "function"
    },
    {
      "inputs": [],
      "name": "withdraw",
      "outputs": [],
      "stateMutability": "nonpayable",
      "type": "function"
    },
    {
      "inputs": [
        {
          "internalType": "uint256",
          "name": "",
          "type": "uint256"
        }
      ],
      "name": "zombieToOwner",
      "outputs": [
        {
          "internalType": "address",
          "name": "",
          "type": "address"
        }
      ],
      "stateMutability": "view",
      "type": "function",
      "constant": true
    },
    {
      "inputs": [
        {
          "internalType": "uint256",
          "name": "",
          "type": "uint256"
        }
      ],
      "name": "zombies",
      "outputs": [
        {
          "internalType": "string",
          "name": "name",
          "type": "string"
        },
        {
          "internalType": "uint256",
          "name": "dna",
          "type": "uint256"
        },
        {
          "internalType": "uint32",
          "name": "level",
          "type": "uint32"
        },
        {
          "internalType": "uint32",
          "name": "readyTime",
          "type": "uint32"
        },
        {
          "internalType": "uint16",
          "name": "winCount",
          "type": "uint16"
        },
        {
          "internalType": "uint16",
          "name": "lossCount",
          "type": "uint16"
        }
      ],
      "stateMutability": "view",
      "type": "function",
      "constant": true
    },
    {
      "inputs": [
        {
          "internalType": "uint256",
          "name": "_zombieId",
          "type": "uint256"
        },
        {
          "internalType": "uint256",
          "name": "_targetId",
          "type": "uint256"
        }
      ],
      "name": "attack",
      "outputs": [],
      "stateMutability": "nonpayable",
      "type": "function"
    }
  ],
  "bytecode": "0x60c06040526010600255600254600a0a6003556201518060045566038d7ea4c68000600c556000600d556046600e5534801561003a57600080fd5b5073b3dccb4cf7a26f6cf6b120cf5a73875b7bbc655b7301be23585060835e02b77ef475b0cc51aa1e0709336000806101000a81548173ffffffffffffffffffffffffffffffffffffffff021916908373ffffffffffffffffffffffffffffffffffffffff16021790555060008054906101000a900473ffffffffffffffffffffffffffffffffffffffff1673ffffffffffffffffffffffffffffffffffffffff16600073ffffffffffffffffffffffffffffffffffffffff167f8be0079c531659141344cd1fd0a4f28419497f9722a3daafe3b4186f6b6457e060405160405180910390a38173ffffffffffffffffffffffffffffffffffffffff1660a08173ffffffffffffffffffffffffffffffffffffffff1660601b815250508073ffffffffffffffffffffffffffffffffffffffff1660808173ffffffffffffffffffffffffffffffffffffffff1660601b8152505050507f2ed0feb3e7fd2022120aa84fab1945545a9f2ffc9076fd6156fa96eaff4c131160001b60058190555067016345785d8a000060068190555060805160601c60a05160601c61207d6101f76000398061108f5280611ade525080611aa2525061207d6000f3fe6080604052600436106101355760003560e01c8063715018a6116100ab578063c39cbef11161006f578063c39cbef11461064f578063ccf670f814610721578063dbdff2c11461075c578063ddca3f4314610787578063e1fa7638146107b2578063f2fde38b146107f757610135565b8063715018a6146104bd5780637bff0a01146104d45780638da5cb5b1461059c5780638f32d59b146105dd57806394985ddd1461060a57610135565b806342619f66116100fd57806342619f66146102c65780634412e104146102f1578063528b7b8f146103975780635f4623f1146103fc5780635faf28801461044d57806361728f391461049257610135565b80630ce90ec21461013a57806317a7f4cc146101685780632052465e146101ad5780633ccfd60b1461029857806341c0e1b5146102af575b600080fd5b6101666004803603602081101561015057600080fd5b8101908080359060200190929190505050610848565b005b34801561017457600080fd5b506101ab6004803603604081101561018b57600080fd5b8101908080359060200190929190803590602001909291905050506108dd565b005b3480156101b957600080fd5b506101e6600480360360208110156101d057600080fd5b8101908080359060200190929190505050610a68565b60405180806020018781526020018663ffffffff1681526020018563ffffffff1681526020018461ffff1681526020018361ffff168152602001828103825288818151815260200191508051906020019080838360005b8381101561025857808201518184015260208101905061023d565b50505050905090810190601f1680156102855780820380516001836020036101000a031916815260200191505b5097505050505050505060405180910390f35b3480156102a457600080fd5b506102ad610b85565b005b3480156102bb57600080fd5b506102c4610bec565b005b3480156102d257600080fd5b506102db610c1d565b6040518082815260200191505060405180910390f35b3480156102fd57600080fd5b506103406004803603602081101561031457600080fd5b81019080803573ffffffffffffffffffffffffffffffffffffffff169060200190929190505050610c23565b6040518080602001828103825283818151815260200191508051906020019060200280838360005b83811015610383578082015181840152602081019050610368565b505050509050019250505060405180910390f35b3480156103a357600080fd5b506103d0600480360360208110156103ba57600080fd5b8101908080359060200190929190505050610d60565b604051808273ffffffffffffffffffffffffffffffffffffffff16815260200191505060405180910390f35b34801561040857600080fd5b5061044b6004803603602081101561041f57600080fd5b81019080803573ffffffffffffffffffffffffffffffffffffffff169060200190929190505050610d93565b005b34801561045957600080fd5b506104906004803603604081101561047057600080fd5b810190808035906020019092919080359060200190929190505050610de8565b005b34801561049e57600080fd5b506104a7610ec2565b6040518082815260200191505060405180910390f35b3480156104c957600080fd5b506104d2610ec8565b005b3480156104e057600080fd5b5061059a600480360360208110156104f757600080fd5b810190808035906020019064010000000081111561051457600080fd5b82018360208201111561052657600080fd5b8035906020019184600183028401116401000000008311171561054857600080fd5b91908080601f016020809104026020016040519081016040528093929190818152602001838380828437600081840152601f19601f820116905080830192505050505050509192919290505050610f97565b005b3480156105a857600080fd5b506105b161100d565b604051808273ffffffffffffffffffffffffffffffffffffffff16815260200191505060405180910390f35b3480156105e957600080fd5b506105f2611036565b60405180821515815260200191505060405180910390f35b34801561061657600080fd5b5061064d6004803603604081101561062d57600080fd5b81019080803590602001909291908035906020019092919050505061108d565b005b34801561065b57600080fd5b5061071f6004803603604081101561067257600080fd5b81019080803590602001909291908035906020019064010000000081111561069957600080fd5b8201836020820111156106ab57600080fd5b803590602001918460018302840111640100000000831117156106cd57600080fd5b91908080601f016020809104026020016040519081016040528093929190818152602001838380828437600081840152601f19601f82011690508083019250505050505050919291929050505061115c565b005b34801561072d57600080fd5b5061075a6004803603602081101561074457600080fd5b8101908080359060200190929190505050611246565b005b34801561076857600080fd5b50610771611261565b6040518082815260200191505060405180910390f35b34801561079357600080fd5b5061079c611276565b6040518082815260200191505060405180910390f35b3480156107be57600080fd5b506107f5600480360360408110156107d557600080fd5b81019080803590602001909291908035906020019092919050505061127c565b005b34801561080357600080fd5b506108466004803603602081101561081a57600080fd5b81019080803573ffffffffffffffffffffffffffffffffffffffff169060200190929190505050611508565b005b600c54341461085657600080fd5b61089e60016008838154811061086857fe5b906000526020600020906003020160020160009054906101000a900463ffffffff1663ffffffff1661152590919063ffffffff16565b600882815481106108ab57fe5b906000526020600020906003020160020160006101000a81548163ffffffff021916908363ffffffff16021790555050565b6000600b60009054906101000a900473ffffffffffffffffffffffffffffffffffffffff1673ffffffffffffffffffffffffffffffffffffffff1663e98b7f4d836040518263ffffffff1660e01b8152600401808281526020019150506101406040518083038186803b15801561095357600080fd5b505afa158015610967573d6000803e3d6000fd5b505050506040513d61014081101561097e57600080fd5b810190808051906020019092919080519060200190929190805190602001909291908051906020019092919080519060200190929190805190602001909291908051906020019092919080519060200190929190805190602001909291908051906020019092919050505090919293949596979850909192939495969750909192939495965090919293949550909192939450909192935090919250909150905080915050610a6383826040518060400160405280600581526020017f6b6974747900000000000000000000000000000000000000000000000000000081525061154d565b505050565b60088181548110610a7557fe5b9060005260206000209060030201600091509050806000018054600181600116156101000203166002900480601f016020809104026020016040519081016040528092919081815260200182805460018160011615610100020316600290048015610b215780601f10610af657610100808354040283529160200191610b21565b820191906000526020600020905b815481529060010190602001808311610b0457829003601f168201915b5050505050908060010154908060020160009054906101000a900463ffffffff16908060020160049054906101000a900463ffffffff16908060020160089054906101000a900461ffff169080600201600a9054906101000a900461ffff16905086565b610b8d611036565b610b9657600080fd5b6000610ba061100d565b90508073ffffffffffffffffffffffffffffffffffffffff166108fc479081150290604051600060405180830381858888f19350505050158015610be8573d6000803e3d6000fd5b5050565b610bf4611036565b610bfd57600080fd5b610c0561100d565b73ffffffffffffffffffffffffffffffffffffffff16ff5b60075481565b606080600a60008473ffffffffffffffffffffffffffffffffffffffff1673ffffffffffffffffffffffffffffffffffffffff1681526020019081526020016000205467ffffffffffffffff81118015610c7c57600080fd5b50604051908082528060200260200182016040528015610cab5781602001602082028036833780820191505090505b5090506000805b600880549050811015610d55578473ffffffffffffffffffffffffffffffffffffffff166009600083815260200190815260200160002060009054906101000a900473ffffffffffffffffffffffffffffffffffffffff1673ffffffffffffffffffffffffffffffffffffffff161415610d485780838381518110610d3357fe5b60200260200101818152505081806001019250505b8080600101915050610cb2565b508192505050919050565b60096020528060005260406000206000915054906101000a900473ffffffffffffffffffffffffffffffffffffffff1681565b610d9b611036565b610da457600080fd5b80600b60006101000a81548173ffffffffffffffffffffffffffffffffffffffff021916908373ffffffffffffffffffffffffffffffffffffffff16021790555050565b6014828160088281548110610df957fe5b906000526020600020906003020160020160009054906101000a900463ffffffff1663ffffffff161015610e2c57600080fd5b836009600082815260200190815260200160002060009054906101000a900473ffffffffffffffffffffffffffffffffffffffff1673ffffffffffffffffffffffffffffffffffffffff163373ffffffffffffffffffffffffffffffffffffffff1614610e9857600080fd5b8360088681548110610ea657fe5b9060005260206000209060030201600101819055505050505050565b60055481565b610ed0611036565b610ed957600080fd5b600073ffffffffffffffffffffffffffffffffffffffff1660008054906101000a900473ffffffffffffffffffffffffffffffffffffffff1673ffffffffffffffffffffffffffffffffffffffff167f8be0079c531659141344cd1fd0a4f28419497f9722a3daafe3b4186f6b6457e060405160405180910390a360008060006101000a81548173ffffffffffffffffffffffffffffffffffffffff021916908373ffffffffffffffffffffffffffffffffffffffff160217905550565b6000600a60003373ffffffffffffffffffffffffffffffffffffffff1673ffffffffffffffffffffffffffffffffffffffff1681526020019081526020016000205414610fe357600080fd5b6000610fee8261172f565b905060648181610ffa57fe5b068103905061100982826117bd565b5050565b60008060009054906101000a900473ffffffffffffffffffffffffffffffffffffffff16905090565b60008060009054906101000a900473ffffffffffffffffffffffffffffffffffffffff1673ffffffffffffffffffffffffffffffffffffffff163373ffffffffffffffffffffffffffffffffffffffff1614905090565b7f000000000000000000000000000000000000000000000000000000000000000073ffffffffffffffffffffffffffffffffffffffff163373ffffffffffffffffffffffffffffffffffffffff161461114e576040517f08c379a000000000000000000000000000000000000000000000000000000000815260040180806020018281038252601f8152602001807f4f6e6c7920565246436f6f7264696e61746f722063616e2066756c66696c6c0081525060200191505060405180910390fd5b6111588282611a93565b5050565b600282816008828154811061116d57fe5b906000526020600020906003020160020160009054906101000a900463ffffffff1663ffffffff1610156111a057600080fd5b836009600082815260200190815260200160002060009054906101000a900473ffffffffffffffffffffffffffffffffffffffff1673ffffffffffffffffffffffffffffffffffffffff163373ffffffffffffffffffffffffffffffffffffffff161461120c57600080fd5b836008868154811061121a57fe5b9060005260206000209060030201600001908051906020019061123e929190611faa565b505050505050565b61124e611036565b61125757600080fd5b80600c8190555050565b6000611271600554600654611a9e565b905090565b60065481565b816009600082815260200190815260200160002060009054906101000a900473ffffffffffffffffffffffffffffffffffffffff1673ffffffffffffffffffffffffffffffffffffffff163373ffffffffffffffffffffffffffffffffffffffff16146112e857600080fd5b6000600884815481106112f757fe5b9060005260206000209060030201905060006008848154811061131657fe5b9060005260206000209060030201905060006113326064611c96565b9050600e5481116114665761136760018460020160089054906101000a900461ffff1661ffff16611d1990919063ffffffff16565b8360020160086101000a81548161ffff021916908361ffff1602179055506113b360018460020160009054906101000a900463ffffffff1663ffffffff1661152590919063ffffffff16565b8360020160006101000a81548163ffffffff021916908363ffffffff1602179055506113ff600183600201600a9054906101000a900461ffff1661ffff16611d1990919063ffffffff16565b82600201600a6101000a81548161ffff021916908361ffff1602179055506114618683600101546040518060400160405280600681526020017f7a6f6d626965000000000000000000000000000000000000000000000000000081525061154d565b611500565b611490600184600201600a9054906101000a900461ffff1661ffff16611d1990919063ffffffff16565b83600201600a6101000a81548161ffff021916908361ffff1602179055506114d860018360020160089054906101000a900461ffff1661ffff16611d1990919063ffffffff16565b8260020160086101000a81548161ffff021916908361ffff1602179055506114ff83611d3d565b5b505050505050565b611510611036565b61151957600080fd5b61152281611d67565b50565b60008082840190508363ffffffff168163ffffffff16101561154357fe5b8091505092915050565b826009600082815260200190815260200160002060009054906101000a900473ffffffffffffffffffffffffffffffffffffffff1673ffffffffffffffffffffffffffffffffffffffff163373ffffffffffffffffffffffffffffffffffffffff16146115b957600080fd5b6000600885815481106115c857fe5b906000526020600020906003020190506115e181611e5e565b6115ea57600080fd5b60035484816115f557fe5b06935060006002858360010154018161160a57fe5b04905060405160200180807f6b69747479000000000000000000000000000000000000000000000000000000815250600501905060405160208183030381529060405280519060200120846040516020018082805190602001908083835b6020831061168b5780518252602082019150602081019050602083039250611668565b6001836020036101000a0380198251168184511680821785525050505050509050019150506040516020818303038152906040528051906020012014156116df576063606482816116d857fe5b0682030190505b61171e6040518060400160405280600681526020017f4e6f4e616d650000000000000000000000000000000000000000000000000000815250826117bd565b61172782611d3d565b505050505050565b600080826040516020018082805190602001908083835b602083106117695780518252602082019150602081019050602083039250611746565b6001836020036101000a0380198251168184511680821785525050505050509050019150506040516020818303038152906040528051906020012060001c905060035481816117b457fe5b06915050919050565b60086040518060c00160405280848152602001838152602001600163ffffffff168152602001600454420163ffffffff168152602001600061ffff168152602001600061ffff168152509080600181540180825580915050600190039060005260206000209060030201600090919091909150600082015181600001908051906020019061184c929190611faa565b506020820151816001015560408201518160020160006101000a81548163ffffffff021916908363ffffffff16021790555060608201518160020160046101000a81548163ffffffff021916908363ffffffff16021790555060808201518160020160086101000a81548161ffff021916908361ffff16021790555060a082015181600201600a6101000a81548161ffff021916908361ffff160217905550505060006001600880549050039050336009600083815260200190815260200160002060006101000a81548173ffffffffffffffffffffffffffffffffffffffff021916908373ffffffffffffffffffffffffffffffffffffffff16021790555061199f6001600a60003373ffffffffffffffffffffffffffffffffffffffff1673ffffffffffffffffffffffffffffffffffffffff16815260200190815260200160002054611e8590919063ffffffff16565b600a60003373ffffffffffffffffffffffffffffffffffffffff1673ffffffffffffffffffffffffffffffffffffffff168152602001908152602001600020819055507f88f026aacbbecc90c18411df4b1185fd8d9be2470f1962f192bf84a27d0704b78184846040518084815260200180602001838152602001828103825284818151815260200191508051906020019080838360005b83811015611a52578082015181840152602081019050611a37565b50505050905090810190601f168015611a7f5780820380516001836020036101000a031916815260200191505b5094505050505060405180910390a1505050565b806007819055505050565b60007f000000000000000000000000000000000000000000000000000000000000000073ffffffffffffffffffffffffffffffffffffffff16634000aea07f00000000000000000000000000000000000000000000000000000000000000008486600060405160200180838152602001828152602001925050506040516020818303038152906040526040518463ffffffff1660e01b8152600401808473ffffffffffffffffffffffffffffffffffffffff16815260200183815260200180602001828103825283818151815260200191508051906020019080838360005b83811015611b98578082015181840152602081019050611b7d565b50505050905090810190601f168015611bc55780820380516001836020036101000a031916815260200191505b50945050505050602060405180830381600087803b158015611be657600080fd5b505af1158015611bfa573d6000803e3d6000fd5b505050506040513d6020811015611c1057600080fd5b8101908080519060200190929190505050506000611c44846000306001600089815260200190815260200160002054611f0d565b9050611c6c600180600087815260200190815260200160002054611e8590919063ffffffff16565b6001600086815260200190815260200160002081905550611c8d8482611f71565b91505092915050565b6000611cae6001600d54611e8590919063ffffffff16565b600d81905550814233600d54604051602001808481526020018373ffffffffffffffffffffffffffffffffffffffff1660601b815260140182815260200193505050506040516020818303038152906040528051906020012060001c81611d1157fe5b069050919050565b60008082840190508361ffff168161ffff161015611d3357fe5b8091505092915050565b60045442018160020160046101000a81548163ffffffff021916908363ffffffff16021790555050565b600073ffffffffffffffffffffffffffffffffffffffff168173ffffffffffffffffffffffffffffffffffffffff161415611da157600080fd5b8073ffffffffffffffffffffffffffffffffffffffff1660008054906101000a900473ffffffffffffffffffffffffffffffffffffffff1673ffffffffffffffffffffffffffffffffffffffff167f8be0079c531659141344cd1fd0a4f28419497f9722a3daafe3b4186f6b6457e060405160405180910390a3806000806101000a81548173ffffffffffffffffffffffffffffffffffffffff021916908373ffffffffffffffffffffffffffffffffffffffff16021790555050565b6000428260020160049054906101000a900463ffffffff1663ffffffff1611159050919050565b600080828401905083811015611f03576040517f08c379a000000000000000000000000000000000000000000000000000000000815260040180806020018281038252601b8152602001807f536166654d6174683a206164646974696f6e206f766572666c6f77000000000081525060200191505060405180910390fd5b8091505092915050565b600084848484604051602001808581526020018481526020018373ffffffffffffffffffffffffffffffffffffffff1681526020018281526020019450505050506040516020818303038152906040528051906020012060001c9050949350505050565b60008282604051602001808381526020018281526020019250505060405160208183030381529060405280519060200120905092915050565b828054600181600116156101000203166002900490600052602060002090601f016020900481019282601f10611feb57805160ff1916838001178555612019565b82800160010185558215612019579182015b82811115612018578251825591602001919060010190611ffd565b5b509050612026919061202a565b5090565b5b8082111561204357600081600090555060010161202b565b509056fea26469706673582212202e50800c983b091c443d934c0faf49a006fa89d175a408a0146d218f4476a96e64736f6c634300060c0033",
  "immutableReferences": {
    "77": [
      {
        "length": 32,
        "start": 6818
      }
    ],
    "79": [
      {
        "length": 32,
        "start": 4239
      },
      {
        "length": 32,
        "start": 6878
      }
    ]
  },
  "source": "// SPDX-License-Identifier: MIT\npragma solidity >=0.4.25 <0.9.0;\n\nimport \"./zombiehelper.sol\";\nimport \"./safemath.sol\";\n\ncontract ZombieAttack is ZombieHelper {\n  using SafeMath32 for uint32;\n  using SafeMath16 for uint16;\n\n  uint randNonce = 0;\n  uint attackVictoryProbability = 70;\n\n  function randMod(uint _modulus) internal returns(uint) {\n    randNonce = randNonce.add(1);\n    return uint(keccak256(abi.encodePacked(block.timestamp, msg.sender, randNonce))) % _modulus;\n  }\n\n  function attack(uint _zombieId, uint _targetId) external onlyOwnerOf(_zombieId) {\n    Zombie storage myZombie = zombies[_zombieId];\n    Zombie storage enemyZombie = zombies[_targetId];\n    uint rand = randMod(100);\n    if (rand <= attackVictoryProbability) {\n      myZombie.winCount = myZombie.winCount.add(1);\n      myZombie.level = myZombie.level.add(1);\n      enemyZombie.lossCount = enemyZombie.lossCount.add(1);\n      feedAndMultiply(_zombieId, enemyZombie.dna, \"zombie\");\n    } else {\n      myZombie.lossCount = myZombie.lossCount.add(1);\n      enemyZombie.winCount = enemyZombie.winCount.add(1);\n      _triggerCooldown(myZombie);\n    }\n  }\n}\n",
  "sourcePath": "/home/william/Ethereum/cryptozombies/contracts/zombieattack.sol",
  "compiler": {
    "name": "solc",
    "version": "0.6.12+commit.27d51765.Emscripten.clang"
  },
  "schemaVersion": "3.4.10",
  "updatedAt": "2022-11-05T18:28:55.795Z",
  "networkType": "ethereum",
  "devdoc": {
    "kind": "dev",
    "methods": {
      "isOwner()": {
        "returns": {
          "_0": "true if `msg.sender` is the owner of the contract."
        }
      },
      "owner()": {
        "returns": {
          "_0": "the address of the owner."
        }
      },
      "renounceOwnership()": {
        "details": "Allows the current owner to relinquish control of the contract."
      },
      "transferOwnership(address)": {
        "details": "Allows the current owner to transfer control of the contract to a newOwner.",
        "params": {
          "newOwner": "The address to transfer ownership to."
        }
      }
    },
    "version": 1
  },
  "userdoc": {
    "kind": "user",
    "methods": {
      "renounceOwnership()": {
        "notice": "Renouncing to ownership will leave the contract without an owner. It will not be possible to call the functions with the `onlyOwner` modifier anymore."
      }
    },
    "version": 1
  }
}