{
  "contractName": "ZombieFactory",
  "abi": [
    {
      "inputs": [],
      "stateMutability": "nonpayable",
      "type": "constructor"
    },
    {
      "anonymous": false,
      "inputs": [
        {
          "indexed": false,
          "internalType": "uint256",
          "name": "zombieId",
          "type": "uint256"
        },
        {
          "indexed": false,
          "internalType": "string",
          "name": "name",
          "type": "string"
        },
        {
          "indexed": false,
          "internalType": "uint256",
          "name": "dna",
          "type": "uint256"
        }
      ],
      "name": "NewZombie",
      "type": "event"
    },
    {
      "anonymous": false,
      "inputs": [
        {
          "indexed": true,
          "internalType": "address",
          "name": "previousOwner",
          "type": "address"
        },
        {
          "indexed": true,
          "internalType": "address",
          "name": "newOwner",
          "type": "address"
        }
      ],
      "name": "OwnershipTransferred",
      "type": "event"
    },
    {
      "inputs": [],
      "name": "fee",
      "outputs": [
        {
          "internalType": "uint256",
          "name": "",
          "type": "uint256"
        }
      ],
      "stateMutability": "view",
      "type": "function",
      "constant": true
    },
    {
      "inputs": [],
      "name": "isOwner",
      "outputs": [
        {
          "internalType": "bool",
          "name": "",
          "type": "bool"
        }
      ],
      "stateMutability": "view",
      "type": "function",
      "constant": true
    },
    {
      "inputs": [],
      "name": "keyHash",
      "outputs": [
        {
          "internalType": "bytes32",
          "name": "",
          "type": "bytes32"
        }
      ],
      "stateMutability": "view",
      "type": "function",
      "constant": true
    },
    {
      "inputs": [],
      "name": "owner",
      "outputs": [
        {
          "internalType": "address",
          "name": "",
          "type": "address"
        }
      ],
      "stateMutability": "view",
      "type": "function",
      "constant": true
    },
    {
      "inputs": [],
      "name": "randomResult",
      "outputs": [
        {
          "internalType": "uint256",
          "name": "",
          "type": "uint256"
        }
      ],
      "stateMutability": "view",
      "type": "function",
      "constant": true
    },
    {
      "inputs": [
        {
          "internalType": "bytes32",
          "name": "requestId",
          "type": "bytes32"
        },
        {
          "internalType": "uint256",
          "name": "randomness",
          "type": "uint256"
        }
      ],
      "name": "rawFulfillRandomness",
      "outputs": [],
      "stateMutability": "nonpayable",
      "type": "function"
    },
    {
      "inputs": [],
      "name": "renounceOwnership",
      "outputs": [],
      "stateMutability": "nonpayable",
      "type": "function"
    },
    {
      "inputs": [
        {
          "internalType": "address",
          "name": "newOwner",
          "type": "address"
        }
      ],
      "name": "transferOwnership",
      "outputs": [],
      "stateMutability": "nonpayable",
      "type": "function"
    },
    {
      "inputs": [
        {
          "internalType": "uint256",
          "name": "",
          "type": "uint256"
        }
      ],
      "name": "zombieToOwner",
      "outputs": [
        {
          "internalType": "address",
          "name": "",
          "type": "address"
        }
      ],
      "stateMutability": "view",
      "type": "function",
      "constant": true
    },
    {
      "inputs": [
        {
          "internalType": "uint256",
          "name": "",
          "type": "uint256"
        }
      ],
      "name": "zombies",
      "outputs": [
        {
          "internalType": "string",
          "name": "name",
          "type": "string"
        },
        {
          "internalType": "uint256",
          "name": "dna",
          "type": "uint256"
        },
        {
          "internalType": "uint32",
          "name": "level",
          "type": "uint32"
        },
        {
          "internalType": "uint32",
          "name": "readyTime",
          "type": "uint32"
        },
        {
          "internalType": "uint16",
          "name": "winCount",
          "type": "uint16"
        },
        {
          "internalType": "uint16",
          "name": "lossCount",
          "type": "uint16"
        }
      ],
      "stateMutability": "view",
      "type": "function",
      "constant": true
    },
    {
      "inputs": [],
      "name": "getRandomNumber",
      "outputs": [
        {
          "internalType": "bytes32",
          "name": "requestId",
          "type": "bytes32"
        }
      ],
      "stateMutability": "nonpayable",
      "type": "function"
    },
    {
      "inputs": [
        {
          "internalType": "string",
          "name": "_name",
          "type": "string"
        }
      ],
      "name": "createRandomZombie",
      "outputs": [],
      "stateMutability": "nonpayable",
      "type": "function"
    },
    {
      "inputs": [],
      "name": "kill",
      "outputs": [],
      "stateMutability": "nonpayable",
      "type": "function"
    }
  ],
  "bytecode": "0x60c06040526010600255600254600a0a6003556201518060045534801561002557600080fd5b5073b3dccb4cf7a26f6cf6b120cf5a73875b7bbc655b7301be23585060835e02b77ef475b0cc51aa1e0709336000806101000a81548173ffffffffffffffffffffffffffffffffffffffff021916908373ffffffffffffffffffffffffffffffffffffffff16021790555060008054906101000a900473ffffffffffffffffffffffffffffffffffffffff1673ffffffffffffffffffffffffffffffffffffffff16600073ffffffffffffffffffffffffffffffffffffffff167f8be0079c531659141344cd1fd0a4f28419497f9722a3daafe3b4186f6b6457e060405160405180910390a38173ffffffffffffffffffffffffffffffffffffffff1660a08173ffffffffffffffffffffffffffffffffffffffff1660601b815250508073ffffffffffffffffffffffffffffffffffffffff1660808173ffffffffffffffffffffffffffffffffffffffff1660601b8152505050507f2ed0feb3e7fd2022120aa84fab1945545a9f2ffc9076fd6156fa96eaff4c131160001b60058190555067016345785d8a000060068190555060805160601c60a05160601c6110d06101e2600039806107755280610c29525080610bed52506110d06000f3fe608060405234801561001057600080fd5b50600436106100cf5760003560e01c80637bff0a011161008c57806394985ddd1161006657806394985ddd14610369578063dbdff2c1146103a1578063ddca3f43146103bf578063f2fde38b146103dd576100cf565b80637bff0a011461025a5780638da5cb5b146103155780638f32d59b14610349576100cf565b80632052465e146100d457806341c0e1b5146101b257806342619f66146101bc578063528b7b8f146101da57806361728f3914610232578063715018a614610250575b600080fd5b610100600480360360208110156100ea57600080fd5b8101908080359060200190929190505050610421565b60405180806020018781526020018663ffffffff1681526020018563ffffffff1681526020018461ffff1681526020018361ffff168152602001828103825288818151815260200191508051906020019080838360005b83811015610172578082015181840152602081019050610157565b50505050905090810190601f16801561019f5780820380516001836020036101000a031916815260200191505b5097505050505050505060405180910390f35b6101ba61053e565b005b6101c461056f565b6040518082815260200191505060405180910390f35b610206600480360360208110156101f057600080fd5b8101908080359060200190929190505050610575565b604051808273ffffffffffffffffffffffffffffffffffffffff16815260200191505060405180910390f35b61023a6105a8565b6040518082815260200191505060405180910390f35b6102586105ae565b005b6103136004803603602081101561027057600080fd5b810190808035906020019064010000000081111561028d57600080fd5b82018360208201111561029f57600080fd5b803590602001918460018302840111640100000000831117156102c157600080fd5b91908080601f016020809104026020016040519081016040528093929190818152602001838380828437600081840152601f19601f82011690508083019250505050505050919291929050505061067d565b005b61031d6106f3565b604051808273ffffffffffffffffffffffffffffffffffffffff16815260200191505060405180910390f35b61035161071c565b60405180821515815260200191505060405180910390f35b61039f6004803603604081101561037f57600080fd5b810190808035906020019092919080359060200190929190505050610773565b005b6103a9610842565b6040518082815260200191505060405180910390f35b6103c7610857565b6040518082815260200191505060405180910390f35b61041f600480360360208110156103f357600080fd5b81019080803573ffffffffffffffffffffffffffffffffffffffff16906020019092919050505061085d565b005b6008818154811061042e57fe5b9060005260206000209060030201600091509050806000018054600181600116156101000203166002900480601f0160208091040260200160405190810160405280929190818152602001828054600181600116156101000203166002900480156104da5780601f106104af576101008083540402835291602001916104da565b820191906000526020600020905b8154815290600101906020018083116104bd57829003601f168201915b5050505050908060010154908060020160009054906101000a900463ffffffff16908060020160049054906101000a900463ffffffff16908060020160089054906101000a900461ffff169080600201600a9054906101000a900461ffff16905086565b61054661071c565b61054f57600080fd5b6105576106f3565b73ffffffffffffffffffffffffffffffffffffffff16ff5b60075481565b60096020528060005260406000206000915054906101000a900473ffffffffffffffffffffffffffffffffffffffff1681565b60055481565b6105b661071c565b6105bf57600080fd5b600073ffffffffffffffffffffffffffffffffffffffff1660008054906101000a900473ffffffffffffffffffffffffffffffffffffffff1673ffffffffffffffffffffffffffffffffffffffff167f8be0079c531659141344cd1fd0a4f28419497f9722a3daafe3b4186f6b6457e060405160405180910390a360008060006101000a81548173ffffffffffffffffffffffffffffffffffffffff021916908373ffffffffffffffffffffffffffffffffffffffff160217905550565b6000600a60003373ffffffffffffffffffffffffffffffffffffffff1673ffffffffffffffffffffffffffffffffffffffff16815260200190815260200160002054146106c957600080fd5b60006106d48261087a565b9050606481816106e057fe5b06810390506106ef8282610908565b5050565b60008060009054906101000a900473ffffffffffffffffffffffffffffffffffffffff16905090565b60008060009054906101000a900473ffffffffffffffffffffffffffffffffffffffff1673ffffffffffffffffffffffffffffffffffffffff163373ffffffffffffffffffffffffffffffffffffffff1614905090565b7f000000000000000000000000000000000000000000000000000000000000000073ffffffffffffffffffffffffffffffffffffffff163373ffffffffffffffffffffffffffffffffffffffff1614610834576040517f08c379a000000000000000000000000000000000000000000000000000000000815260040180806020018281038252601f8152602001807f4f6e6c7920565246436f6f7264696e61746f722063616e2066756c66696c6c0081525060200191505060405180910390fd5b61083e8282610bde565b5050565b6000610852600554600654610be9565b905090565b60065481565b61086561071c565b61086e57600080fd5b61087781610de1565b50565b600080826040516020018082805190602001908083835b602083106108b45780518252602082019150602081019050602083039250610891565b6001836020036101000a0380198251168184511680821785525050505050509050019150506040516020818303038152906040528051906020012060001c905060035481816108ff57fe5b06915050919050565b60086040518060c00160405280848152602001838152602001600163ffffffff168152602001600454420163ffffffff168152602001600061ffff168152602001600061ffff1681525090806001815401808255809150506001900390600052602060002090600302016000909190919091506000820151816000019080519060200190610997929190610ffd565b506020820151816001015560408201518160020160006101000a81548163ffffffff021916908363ffffffff16021790555060608201518160020160046101000a81548163ffffffff021916908363ffffffff16021790555060808201518160020160086101000a81548161ffff021916908361ffff16021790555060a082015181600201600a6101000a81548161ffff021916908361ffff160217905550505060006001600880549050039050336009600083815260200190815260200160002060006101000a81548173ffffffffffffffffffffffffffffffffffffffff021916908373ffffffffffffffffffffffffffffffffffffffff160217905550610aea6001600a60003373ffffffffffffffffffffffffffffffffffffffff1673ffffffffffffffffffffffffffffffffffffffff16815260200190815260200160002054610ed890919063ffffffff16565b600a60003373ffffffffffffffffffffffffffffffffffffffff1673ffffffffffffffffffffffffffffffffffffffff168152602001908152602001600020819055507f88f026aacbbecc90c18411df4b1185fd8d9be2470f1962f192bf84a27d0704b78184846040518084815260200180602001838152602001828103825284818151815260200191508051906020019080838360005b83811015610b9d578082015181840152602081019050610b82565b50505050905090810190601f168015610bca5780820380516001836020036101000a031916815260200191505b5094505050505060405180910390a1505050565b806007819055505050565b60007f000000000000000000000000000000000000000000000000000000000000000073ffffffffffffffffffffffffffffffffffffffff16634000aea07f00000000000000000000000000000000000000000000000000000000000000008486600060405160200180838152602001828152602001925050506040516020818303038152906040526040518463ffffffff1660e01b8152600401808473ffffffffffffffffffffffffffffffffffffffff16815260200183815260200180602001828103825283818151815260200191508051906020019080838360005b83811015610ce3578082015181840152602081019050610cc8565b50505050905090810190601f168015610d105780820380516001836020036101000a031916815260200191505b50945050505050602060405180830381600087803b158015610d3157600080fd5b505af1158015610d45573d6000803e3d6000fd5b505050506040513d6020811015610d5b57600080fd5b8101908080519060200190929190505050506000610d8f846000306001600089815260200190815260200160002054610f60565b9050610db7600180600087815260200190815260200160002054610ed890919063ffffffff16565b6001600086815260200190815260200160002081905550610dd88482610fc4565b91505092915050565b600073ffffffffffffffffffffffffffffffffffffffff168173ffffffffffffffffffffffffffffffffffffffff161415610e1b57600080fd5b8073ffffffffffffffffffffffffffffffffffffffff1660008054906101000a900473ffffffffffffffffffffffffffffffffffffffff1673ffffffffffffffffffffffffffffffffffffffff167f8be0079c531659141344cd1fd0a4f28419497f9722a3daafe3b4186f6b6457e060405160405180910390a3806000806101000a81548173ffffffffffffffffffffffffffffffffffffffff021916908373ffffffffffffffffffffffffffffffffffffffff16021790555050565b600080828401905083811015610f56576040517f08c379a000000000000000000000000000000000000000000000000000000000815260040180806020018281038252601b8152602001807f536166654d6174683a206164646974696f6e206f766572666c6f77000000000081525060200191505060405180910390fd5b8091505092915050565b600084848484604051602001808581526020018481526020018373ffffffffffffffffffffffffffffffffffffffff1681526020018281526020019450505050506040516020818303038152906040528051906020012060001c9050949350505050565b60008282604051602001808381526020018281526020019250505060405160208183030381529060405280519060200120905092915050565b828054600181600116156101000203166002900490600052602060002090601f016020900481019282601f1061103e57805160ff191683800117855561106c565b8280016001018555821561106c579182015b8281111561106b578251825591602001919060010190611050565b5b509050611079919061107d565b5090565b5b8082111561109657600081600090555060010161107e565b509056fea2646970667358221220147ddc7d760cfeb562cb74f0b61e28cd4d306c4196956f65b0b327adc87013ea64736f6c634300060c0033",
  "immutableReferences": {
    "77": [
      {
        "length": 32,
        "start": 3053
      }
    ],
    "79": [
      {
        "length": 32,
        "start": 1909
      },
      {
        "length": 32,
        "start": 3113
      }
    ]
  },
  "source": "// SPDX-License-Identifier: MIT\npragma solidity >=0.4.25 <0.9.0;\n\nimport \"./ownable.sol\";\nimport \"./safemath.sol\";\nimport \"@chainlink/contracts/src/v0.6/VRFConsumerBase.sol\";\n\ncontract ZombieFactory is Ownable, VRFConsumerBase {\n    using SafeMath32 for uint32;\n    using SafeMath16 for uint16;\n\n    event NewZombie(uint256 zombieId, string name, uint256 dna);\n\n    uint256 dnaDigits = 16;\n    uint256 dnaModulus = 10**dnaDigits;\n    uint256 cooldownTime = 1 days;\n    bytes32 public keyHash;\n    uint256 public fee;\n    uint256 public randomResult;\n\n    struct Zombie {\n        string name;\n        uint256 dna;\n        uint32 level;\n        uint32 readyTime;\n        uint16 winCount;\n        uint16 lossCount;\n    }\n\n    Zombie[] public zombies;\n\n    constructor()\n        public\n        VRFConsumerBase(\n            0xb3dCcb4Cf7a26f6cf6B120Cf5A73875B7BBc655B,\n            0x01BE23585060835E02B77ef475b0Cc51aA1e0709\n        )\n    {\n        keyHash = 0x2ed0feb3e7fd2022120aa84fab1945545a9f2ffc9076fd6156fa96eaff4c1311;\n        fee = 100000000000000000;\n    }\n\n    mapping(uint256 => address) public zombieToOwner;\n    mapping(address => uint256) ownerZombieCount;\n\n    function _createZombie(string memory _name, uint256 _dna) internal {\n        zombies.push(\n            Zombie(_name, _dna, 1, uint32(block.timestamp + cooldownTime), 0, 0)\n        );\n        uint256 id = zombies.length - 1;\n        zombieToOwner[id] = msg.sender;\n        ownerZombieCount[msg.sender] = ownerZombieCount[msg.sender].add(1);\n        emit NewZombie(id, _name, _dna);\n    }\n\n    function getRandomNumber() public returns (bytes32 requestId) {\n        return requestRandomness(keyHash, fee);\n    }\n\n    function fulfillRandomness(bytes32 requestId, uint256 randomness)\n        internal\n        override\n    {\n        randomResult = randomness;\n    }\n\n    function _generateRandomDna(string memory _str)\n        private\n        view\n        returns (uint256)\n    {\n        uint256 rand = uint256(keccak256(abi.encodePacked(_str)));\n        return rand % dnaModulus;\n    }\n\n    function createRandomZombie(string memory _name) public {\n        require(ownerZombieCount[msg.sender] == 0);\n        uint256 randDna = _generateRandomDna(_name);\n        randDna = randDna - (randDna % 100);\n        _createZombie(_name, randDna);\n    }\n\n    function kill() public onlyOwner {\n        selfdestruct(payable(owner()));\n    }\n}\n",
  "sourcePath": "/home/william/Ethereum/cryptozombies/contracts/zombiefactory.sol",
  "compiler": {
    "name": "solc",
    "version": "0.6.12+commit.27d51765.Emscripten.clang"
  },
  "schemaVersion": "3.4.10",
  "updatedAt": "2022-11-05T18:29:29.444Z",
  "networkType": "ethereum",
  "devdoc": {
    "kind": "dev",
    "methods": {
      "isOwner()": {
        "returns": {
          "_0": "true if `msg.sender` is the owner of the contract."
        }
      },
      "owner()": {
        "returns": {
          "_0": "the address of the owner."
        }
      },
      "renounceOwnership()": {
        "details": "Allows the current owner to relinquish control of the contract."
      },
      "transferOwnership(address)": {
        "details": "Allows the current owner to transfer control of the contract to a newOwner.",
        "params": {
          "newOwner": "The address to transfer ownership to."
        }
      }
    },
    "version": 1
  },
  "userdoc": {
    "kind": "user",
    "methods": {
      "renounceOwnership()": {
        "notice": "Renouncing to ownership will leave the contract without an owner. It will not be possible to call the functions with the `onlyOwner` modifier anymore."
      }
    },
    "version": 1
  }
}